{
  "contractName": "BookStorage",
  "abi": [
    {
      "anonymous": false,
      "inputs": [
        {
          "indexed": false,
          "internalType": "uint256",
          "name": "bookId",
          "type": "uint256"
        },
        {
          "indexed": false,
          "internalType": "uint256",
          "name": "creatorId",
          "type": "uint256"
        },
        {
          "indexed": false,
          "internalType": "string",
          "name": "content",
          "type": "string"
        }
      ],
      "name": "BookAdded",
      "type": "event"
    },
    {
      "inputs": [
        {
          "internalType": "uint256",
          "name": "",
          "type": "uint256"
        }
      ],
      "name": "books",
      "outputs": [
        {
          "internalType": "uint256",
          "name": "creatorId",
          "type": "uint256"
        },
        {
          "internalType": "string",
          "name": "content",
          "type": "string"
        }
      ],
      "stateMutability": "view",
      "type": "function"
    },
    {
      "inputs": [],
      "name": "lastBookId",
      "outputs": [
        {
          "internalType": "uint256",
          "name": "",
          "type": "uint256"
        }
      ],
      "stateMutability": "view",
      "type": "function"
    },
    {
      "inputs": [
        {
          "internalType": "uint256",
          "name": "_creatorId",
          "type": "uint256"
        },
        {
          "internalType": "string",
          "name": "_content",
          "type": "string"
        }
      ],
      "name": "addBook",
      "outputs": [],
      "stateMutability": "nonpayable",
      "type": "function"
    },
    {
      "inputs": [
        {
          "internalType": "uint256",
          "name": "_bookId",
          "type": "uint256"
        }
      ],
      "name": "getBook",
      "outputs": [
        {
          "internalType": "uint256",
          "name": "",
          "type": "uint256"
        },
        {
          "internalType": "string",
          "name": "",
          "type": "string"
        }
      ],
      "stateMutability": "view",
      "type": "function"
    }
  ],
  "bytecode": "0x60806040525f600155348015610013575f80fd5b50610986806100215f395ff3fe608060405234801561000f575f80fd5b506004361061004a575f3560e01c8063070cbe2a1461004e5780632e1de90e1461006a5780636874404614610088578063e0ff5b8b146100b9575b5f80fd5b61006860048036038101906100639190610482565b6100ea565b005b61007261018a565b60405161007f91906104eb565b60405180910390f35b6100a2600480360381019061009d9190610504565b610190565b6040516100b09291906105a9565b60405180910390f35b6100d360048036038101906100ce9190610504565b610235565b6040516100e19291906105a9565b60405180910390f35b60015f8154809291906100fc90610604565b91905055506040518060400160405280838152602001828152505f8060015481526020019081526020015f205f820151815f015560208201518160010190816101459190610845565b509050507f81dab0734888a266526f4607cd4b3e6eb357039cc94c55f7713e6cf44ec64848600154838360405161017e93929190610914565b60405180910390a15050565b60015481565b5f602052805f5260405f205f91509050805f0154908060010180546101b490610678565b80601f01602080910402602001604051908101604052809291908181526020018280546101e090610678565b801561022b5780601f106102025761010080835404028352916020019161022b565b820191905f5260205f20905b81548152906001019060200180831161020e57829003601f168201915b5050505050905082565b5f60605f805f8581526020019081526020015f206040518060400160405290815f820154815260200160018201805461026d90610678565b80601f016020809104026020016040519081016040528092919081815260200182805461029990610678565b80156102e45780601f106102bb576101008083540402835291602001916102e4565b820191905f5260205f20905b8154815290600101906020018083116102c757829003601f168201915b5050505050815250509050805f015181602001519250925050915091565b5f604051905090565b5f80fd5b5f80fd5b5f819050919050565b61032581610313565b811461032f575f80fd5b50565b5f813590506103408161031c565b92915050565b5f80fd5b5f80fd5b5f601f19601f8301169050919050565b7f4e487b71000000000000000000000000000000000000000000000000000000005f52604160045260245ffd5b6103948261034e565b810181811067ffffffffffffffff821117156103b3576103b261035e565b5b80604052505050565b5f6103c5610302565b90506103d1828261038b565b919050565b5f67ffffffffffffffff8211156103f0576103ef61035e565b5b6103f98261034e565b9050602081019050919050565b828183375f83830152505050565b5f610426610421846103d6565b6103bc565b9050828152602081018484840111156104425761044161034a565b5b61044d848285610406565b509392505050565b5f82601f83011261046957610468610346565b5b8135610479848260208601610414565b91505092915050565b5f80604083850312156104985761049761030b565b5b5f6104a585828601610332565b925050602083013567ffffffffffffffff8111156104c6576104c561030f565b5b6104d285828601610455565b9150509250929050565b6104e581610313565b82525050565b5f6020820190506104fe5f8301846104dc565b92915050565b5f602082840312156105195761051861030b565b5b5f61052684828501610332565b91505092915050565b5f81519050919050565b5f82825260208201905092915050565b5f5b8381101561056657808201518184015260208101905061054b565b5f8484015250505050565b5f61057b8261052f565b6105858185610539565b9350610595818560208601610549565b61059e8161034e565b840191505092915050565b5f6040820190506105bc5f8301856104dc565b81810360208301526105ce8184610571565b90509392505050565b7f4e487b71000000000000000000000000000000000000000000000000000000005f52601160045260245ffd5b5f61060e82610313565b91507fffffffffffffffffffffffffffffffffffffffffffffffffffffffffffffffff82036106405761063f6105d7565b5b600182019050919050565b7f4e487b71000000000000000000000000000000000000000000000000000000005f52602260045260245ffd5b5f600282049050600182168061068f57607f821691505b6020821081036106a2576106a161064b565b5b50919050565b5f819050815f5260205f209050919050565b5f6020601f8301049050919050565b5f82821b905092915050565b5f600883026107047fffffffffffffffffffffffffffffffffffffffffffffffffffffffffffffffff826106c9565b61070e86836106c9565b95508019841693508086168417925050509392505050565b5f819050919050565b5f61074961074461073f84610313565b610726565b610313565b9050919050565b5f819050919050565b6107628361072f565b61077661076e82610750565b8484546106d5565b825550505050565b5f90565b61078a61077e565b610795818484610759565b505050565b5b818110156107b8576107ad5f82610782565b60018101905061079b565b5050565b601f8211156107fd576107ce816106a8565b6107d7846106ba565b810160208510156107e6578190505b6107fa6107f2856106ba565b83018261079a565b50505b505050565b5f82821c905092915050565b5f61081d5f1984600802610802565b1980831691505092915050565b5f610835838361080e565b9150826002028217905092915050565b61084e8261052f565b67ffffffffffffffff8111156108675761086661035e565b5b6108718254610678565b61087c8282856107bc565b5f60209050601f8311600181146108ad575f841561089b578287015190505b6108a5858261082a565b86555061090c565b601f1984166108bb866106a8565b5f5b828110156108e2578489015182556001820191506020850194506020810190506108bd565b868310156108ff57848901516108fb601f89168261080e565b8355505b6001600288020188555050505b505050505050565b5f6060820190506109275f8301866104dc565b61093460208301856104dc565b81810360408301526109468184610571565b905094935050505056fea2646970667358221220a88f5a0dc8f2a36be2f453bbc99f2e7c362faa8831e93266797d94f89e25393a64736f6c63430008150033",
  "immutableReferences": {},
  "source": "// SPDX-License-Identifier: MIT\r\npragma solidity ^0.8.0;\r\n\r\ncontract BookStorage {\r\n    struct Book {\r\n        uint256 creatorId; // ID of the content creator\r\n        string content; // Textual content of the book\r\n    }\r\n\r\n    mapping(uint256 => Book) public books; // Mapping to store books by an ID\r\n    uint256 public lastBookId = 0; // Keep track of the last book ID to automatically assign new IDs\r\n\r\n    event BookAdded(uint256 bookId, uint256 creatorId, string content); // Event to emit when a new book is added\r\n\r\n    /**\r\n     * @dev Adds a new book to the storage.\r\n     * @param _creatorId The ID of the content creator.\r\n     * @param _content The textual content of the book.\r\n     */\r\n    function addBook(uint256 _creatorId, string memory _content) public {\r\n        lastBookId++; // Increment the book ID for each new book\r\n        books[lastBookId] = Book(_creatorId, _content); // Store the new book\r\n\r\n        emit BookAdded(lastBookId, _creatorId, _content); // Emit the event\r\n    }\r\n\r\n    /**\r\n     * @dev Retrieves the details of a book by its ID.\r\n     * @param _bookId The ID of the book to retrieve.\r\n     * @return The ID of the content creator and the textual content of the book.\r\n     */\r\n    function getBook(uint256 _bookId) public view returns (uint256, string memory) {\r\n        Book memory book = books[_bookId]; // Get the book from storage\r\n        return (book.creatorId, book.content); // Return the book details\r\n    }\r\n}\r\n",
  "sourcePath": "D:\\project\\version9\\edusphere\\contracts\\BookStorage.sol",
  "compiler": {
    "name": "solc",
    "version": "0.8.21+commit.d9974bed.Emscripten.clang"
  },
  "schemaVersion": "3.4.16",
  "updatedAt": "2024-04-11T04:59:00.757Z",
  "devdoc": {
    "kind": "dev",
    "methods": {
      "addBook(uint256,string)": {
        "details": "Adds a new book to the storage.",
        "params": {
          "_content": "The textual content of the book.",
          "_creatorId": "The ID of the content creator."
        }
      },
      "getBook(uint256)": {
        "details": "Retrieves the details of a book by its ID.",
        "params": {
          "_bookId": "The ID of the book to retrieve."
        },
        "returns": {
          "_0": "The ID of the content creator and the textual content of the book."
        }
      }
    },
    "version": 1
  },
  "userdoc": {
    "kind": "user",
    "methods": {},
    "version": 1
  }
}