{
  "contractName": "BookData",
  "abi": [
    {
      "anonymous": false,
      "inputs": [
        {
          "indexed": false,
          "internalType": "uint256",
          "name": "bookId",
          "type": "uint256"
        },
        {
          "indexed": false,
          "internalType": "uint256",
          "name": "creatorId",
          "type": "uint256"
        },
        {
          "indexed": false,
          "internalType": "string",
          "name": "content",
          "type": "string"
        }
      ],
      "name": "BookAdded",
      "type": "event"
    },
    {
      "inputs": [
        {
          "internalType": "uint256",
          "name": "",
          "type": "uint256"
        }
      ],
      "name": "books",
      "outputs": [
        {
          "internalType": "uint256",
          "name": "creatorId",
          "type": "uint256"
        },
        {
          "internalType": "string",
          "name": "content",
          "type": "string"
        }
      ],
      "stateMutability": "view",
      "type": "function"
    },
    {
      "inputs": [],
      "name": "lastBookId",
      "outputs": [
        {
          "internalType": "uint256",
          "name": "",
          "type": "uint256"
        }
      ],
      "stateMutability": "view",
      "type": "function"
    },
    {
      "inputs": [
        {
          "internalType": "uint256",
          "name": "_creatorId",
          "type": "uint256"
        },
        {
          "internalType": "string",
          "name": "_content",
          "type": "string"
        }
      ],
      "name": "addBook",
      "outputs": [
        {
          "internalType": "uint256",
          "name": "",
          "type": "uint256"
        }
      ],
      "stateMutability": "nonpayable",
      "type": "function"
    },
    {
      "inputs": [
        {
          "internalType": "uint256",
          "name": "_bookId",
          "type": "uint256"
        }
      ],
      "name": "getBook",
      "outputs": [
        {
          "internalType": "uint256",
          "name": "",
          "type": "uint256"
        },
        {
          "internalType": "string",
          "name": "",
          "type": "string"
        }
      ],
      "stateMutability": "view",
      "type": "function"
    }
  ],
  "bytecode": "0x60806040525f600155348015610013575f80fd5b506109a2806100215f395ff3fe608060405234801561000f575f80fd5b506004361061004a575f3560e01c8063070cbe2a1461004e5780632e1de90e1461007e578063687440461461009c578063e0ff5b8b146100cd575b5f80fd5b6100686004803603810190610063919061049e565b6100fe565b6040516100759190610507565b60405180910390f35b6100866101a6565b6040516100939190610507565b60405180910390f35b6100b660048036038101906100b19190610520565b6101ac565b6040516100c49291906105c5565b60405180910390f35b6100e760048036038101906100e29190610520565b610251565b6040516100f59291906105c5565b60405180910390f35b5f60015f81548092919061011190610620565b91905055506040518060400160405280848152602001838152505f8060015481526020019081526020015f205f820151815f0155602082015181600101908161015a9190610861565b509050507f81dab0734888a266526f4607cd4b3e6eb357039cc94c55f7713e6cf44ec64848600154848460405161019393929190610930565b60405180910390a1600154905092915050565b60015481565b5f602052805f5260405f205f91509050805f0154908060010180546101d090610694565b80601f01602080910402602001604051908101604052809291908181526020018280546101fc90610694565b80156102475780601f1061021e57610100808354040283529160200191610247565b820191905f5260205f20905b81548152906001019060200180831161022a57829003601f168201915b5050505050905082565b5f60605f805f8581526020019081526020015f206040518060400160405290815f820154815260200160018201805461028990610694565b80601f01602080910402602001604051908101604052809291908181526020018280546102b590610694565b80156103005780601f106102d757610100808354040283529160200191610300565b820191905f5260205f20905b8154815290600101906020018083116102e357829003601f168201915b5050505050815250509050805f015181602001519250925050915091565b5f604051905090565b5f80fd5b5f80fd5b5f819050919050565b6103418161032f565b811461034b575f80fd5b50565b5f8135905061035c81610338565b92915050565b5f80fd5b5f80fd5b5f601f19601f8301169050919050565b7f4e487b71000000000000000000000000000000000000000000000000000000005f52604160045260245ffd5b6103b08261036a565b810181811067ffffffffffffffff821117156103cf576103ce61037a565b5b80604052505050565b5f6103e161031e565b90506103ed82826103a7565b919050565b5f67ffffffffffffffff82111561040c5761040b61037a565b5b6104158261036a565b9050602081019050919050565b828183375f83830152505050565b5f61044261043d846103f2565b6103d8565b90508281526020810184848401111561045e5761045d610366565b5b610469848285610422565b509392505050565b5f82601f83011261048557610484610362565b5b8135610495848260208601610430565b91505092915050565b5f80604083850312156104b4576104b3610327565b5b5f6104c18582860161034e565b925050602083013567ffffffffffffffff8111156104e2576104e161032b565b5b6104ee85828601610471565b9150509250929050565b6105018161032f565b82525050565b5f60208201905061051a5f8301846104f8565b92915050565b5f6020828403121561053557610534610327565b5b5f6105428482850161034e565b91505092915050565b5f81519050919050565b5f82825260208201905092915050565b5f5b83811015610582578082015181840152602081019050610567565b5f8484015250505050565b5f6105978261054b565b6105a18185610555565b93506105b1818560208601610565565b6105ba8161036a565b840191505092915050565b5f6040820190506105d85f8301856104f8565b81810360208301526105ea818461058d565b90509392505050565b7f4e487b71000000000000000000000000000000000000000000000000000000005f52601160045260245ffd5b5f61062a8261032f565b91507fffffffffffffffffffffffffffffffffffffffffffffffffffffffffffffffff820361065c5761065b6105f3565b5b600182019050919050565b7f4e487b71000000000000000000000000000000000000000000000000000000005f52602260045260245ffd5b5f60028204905060018216806106ab57607f821691505b6020821081036106be576106bd610667565b5b50919050565b5f819050815f5260205f209050919050565b5f6020601f8301049050919050565b5f82821b905092915050565b5f600883026107207fffffffffffffffffffffffffffffffffffffffffffffffffffffffffffffffff826106e5565b61072a86836106e5565b95508019841693508086168417925050509392505050565b5f819050919050565b5f61076561076061075b8461032f565b610742565b61032f565b9050919050565b5f819050919050565b61077e8361074b565b61079261078a8261076c565b8484546106f1565b825550505050565b5f90565b6107a661079a565b6107b1818484610775565b505050565b5b818110156107d4576107c95f8261079e565b6001810190506107b7565b5050565b601f821115610819576107ea816106c4565b6107f3846106d6565b81016020851015610802578190505b61081661080e856106d6565b8301826107b6565b50505b505050565b5f82821c905092915050565b5f6108395f198460080261081e565b1980831691505092915050565b5f610851838361082a565b9150826002028217905092915050565b61086a8261054b565b67ffffffffffffffff8111156108835761088261037a565b5b61088d8254610694565b6108988282856107d8565b5f60209050601f8311600181146108c9575f84156108b7578287015190505b6108c18582610846565b865550610928565b601f1984166108d7866106c4565b5f5b828110156108fe578489015182556001820191506020850194506020810190506108d9565b8683101561091b5784890151610917601f89168261082a565b8355505b6001600288020188555050505b505050505050565b5f6060820190506109435f8301866104f8565b61095060208301856104f8565b8181036040830152610962818461058d565b905094935050505056fea264697066735822122096c4b4e89f68978be9aad3e09e640e24c93768807cbec7a60b488aa977e6ebaf64736f6c63430008150033",
  "immutableReferences": {},
  "source": "// SPDX-License-Identifier: MIT\r\npragma solidity ^0.8.0;\r\n\r\ncontract BookData {\r\n    struct Book {\r\n        uint256 creatorId; \r\n        string content;\r\n    }\r\n\r\n    mapping(uint256 => Book) public books;\r\n    uint256 public lastBookId = 0;\r\n\r\n    event BookAdded(uint256 bookId, uint256 creatorId, string content);\r\n\r\n    function addBook(uint256 _creatorId, string memory _content) public returns (uint256) {\r\n    lastBookId++;\r\n    books[lastBookId] = Book(_creatorId, _content);\r\n    emit BookAdded(lastBookId, _creatorId, _content);\r\n    return lastBookId;\r\n    }\r\n\r\n\r\n    function getBook(uint256 _bookId) public view returns (uint256, string memory) {\r\n        Book memory book = books[_bookId]; \r\n        return (book.creatorId, book.content);\r\n    }\r\n}\r\n",
  "sourcePath": "D:\\project\\version9\\edusphere\\contracts\\BookData.sol",
  "compiler": {
    "name": "solc",
    "version": "0.8.21+commit.d9974bed.Emscripten.clang"
  },
  "schemaVersion": "3.4.16",
  "updatedAt": "2024-04-11T04:59:00.752Z",
  "devdoc": {
    "kind": "dev",
    "methods": {},
    "version": 1
  },
  "userdoc": {
    "kind": "user",
    "methods": {},
    "version": 1
  }
}